:100000000EC028C027C026C025C0AEC023C022C055
:10001000DEC020C01FC01EC0A7C21CC01BC0112450
:100020001FBECFE5D1E0DEBFCDBF10E0A0E6B0E05F
:10003000E8EAF5E002C005900D92A637B107D9F7BE
:1000400010E0A6E7B0E001C01D92AB37B107E1F7C1
:1000500039D0A8C2D5CFCF93DF93CDB7DEB7DF912C
:10006000CF910895CF93DF93CDB7DEB7DF91CF91D6
:100070000895CF93DF93CDB7DEB780E090E0DF91B6
:10008000CF910895CF93DF9300D0CDB7DEB79A8399
:10009000898380E00F900F90DF91CF910895CF93E7
:1000A000DF93CDB7DEB7AAD081E0A7D1D4DF82E05D
:1000B000A4D1E4D183E0A1D13ED084E09ED1DF91F0
:1000C000CF910895CF93DF9300D0CDB7DEB7E7DFB0
:1000D00040E060E080E0D4D0789401C000008091DE
:1000E0007600882329F01092760010927700BADF0C
:1000F00080916200882319F0109262000DD18091E6
:1001000077008823B1F010927700B3DF9A83898358
:1001100089819A81B7DF882311F081E0D5D0898168
:100120009A81EBD1982F81E089278823B9F2B2D147
:10013000D5CFB0D1D3CFCF93DF93CDB7DEB789E59D
:1001400090E029E530E0F90120812260FC01208364
:1001500086E290E026E230E0F90120812860FC018F
:100160002083DF91CF9108951F920F9200905F003E
:100170000F9211248F939F93CF93DF93CDB7DEB768
:100180008091600090916100009771F4809165000A
:1001900090916600909361008093600081E080936D
:1001A000760081E080936200809160009091610010
:1001B00001979093610080936000DF91CF919F91B0
:1001C0008F910F9000925F000F901F9018951F92D3
:1001D0000F9200905F000F9211248F93CF93DF93C3
:1001E000CDB7DEB781E080937700DF91CF918F911B
:1001F0000F9000925F000F901F901895CF93DF93A0
:10020000CDB7DEB788E390E028E330E0F901208144
:100210002361FC01208387E390E027E330E0F901CC
:1002200020812361FC0120838AE490E023ECFC011F
:10023000208383E590E021E0FC01208380E590E0CD
:1002400021E7FC0120838CE490E02CE430E0F9010C
:1002500020812067FC0120838DE490E02FEFFC01DA
:10026000208389E490E0FC0110828EE490E0FC01A0
:1002700010828BE490E0FC011082DF91CF91089511
:10028000CF93DF9300D01F92CDB7DEB789836A8307
:100290004B8380916700909168002981FC01208345
:1002A0008091690090916A002A81FC0120838091ED
:1002B0006B0090916C002B81FC0120830F900F90BC
:1002C0000F90DF91CF910895CF93DF931F92CDB719
:1002D000DEB78983909178008981892B809378009B
:1002E0000F90DF91CF910895CF93DF9300D01F92AD
:1002F000CDB7DEB78B838EEF89838B81882321F482
:1003000089818A838A8102C08B8184500F900F90EB
:100310000F90DF91CF9108950F931F93CF93DF93A9
:10032000CDB7DEB780917800882F90E08170992753
:100330000097D1F0009167001091680080916700EC
:1003400090916800FC018081CFDFF801808380916B
:10035000670090916800FC018081882329F48091D6
:1003600078008E7F8093780080917800882F90E0CD
:10037000827099270097D1F00091690010916A006E
:100380008091690090916A00FC018081ADDFF801E5
:1003900080838091690090916A00FC0180818823AC
:1003A00029F4809178008D7F809378008091780087
:1003B000882F90E0847099270097D1F000916B000E
:1003C00010916C0080916B0090916C00FC01808119
:1003D0008BDFF801808380916B0090916C00FC01B1
:1003E0008081882329F4809178008B7F8093780026
:1003F000DF91CF911F910F910895CF93DF9300D09C
:1004000000D01F92CDB7DEB78D838D8197E0692F25
:10041000BDD0892F882F90E083599F4FFC018081A8
:1004200089838981882F90E081709927009711F046
:100430008FEF01C080E08A838981882F90E08270ED
:100440009927009711F08FEF01C080E08B8389819D
:10045000882F90E084709927009711F08FEF01C0EA
:1004600080E08C834C816B818A810ADF0F900F9032
:100470000F900F900F90DF91CF910895CF93DF935E
:10048000CDB7DEB781E490E026E4FC012083DF9164
:10049000CF910895CF93DF93CDB7DEB786E290E09A
:1004A00026E230E0F90120812F77FC01208385E5E9
:1004B00090E025E530E0F9012081277EFC012083D2
:1004C00085E590E025E530E0F90120812062FC011E
:1004D0002083889585E590E025E530E0F9012081CD
:1004E0002F7DFC012083DF91CF910895CF93DF937F
:1004F000CDB7DEB7DF91CF910895CF93DF9300D0D2
:10050000CDB7DEB79A8389838091630090916400B0
:10051000009749F484E090E0909364008093630036
:10052000E5DF81E01CC08091740090917500298105
:100530003A812817390750F4809163009091640044
:100540000197909364008093630008C080917900C4
:1005500090917A00909364008093630080E00F9004
:100560000F90DF91CF9108951F920F9200905F003E
:100570000F921124CF93DF93CDB7DEB7DF91CF91E8
:100580000F9000925F000F901F901895991B79E0D3
:1005900004C0991F961708F0961B881F7A95C9F713
:0805A00080950895F894FFCF47
:1005A8008601012003860149004E004E0001020425
:0605B800030605076400C4
:00000001FF
